:1000000012C02CC02BC02AC08CC028C027C026C05C
:1000100025C024C023C042C121C0A1C11FC01EC031
:100020001DC01CC01BC011241FBECFE5D4E0DEBF25
:10003000CDBF10E0A0E6B0E0EEE9F4E002C005902C
:100040000D92A436B107D9F720E0A4E6B0E001C0D4
:100050001D92A33BB207E1F7D6D11FC2D1CF82B325
:1000600090E1892782BB089587B3836087BB089599
:1000700098B39C7F98BB98B38370892B88BB0895F5
:1000800088B38C7F88BB089581B38F7381BB84B3A1
:10009000807C84BB089581B3806C81BB84B38F6303
:1000A00084BB089522B3982F907C922B92BB95B37A
:1000B0008F73892B85BB089580B393B39F73807C26
:1000C000892B089582B38F7382BB85B3807C85BBF7
:1000D000DBCFE1DF82B38F7382BB85B3807C85BBCE
:1000E00008958A9A8B9A0895811102C09298089572
:1000F000929A0895811102C093980895939A089551
:10010000F894BA9A89B7806489BF85B5846085BD43
:10011000E0916400F0E0EE59FF4F808184BD789457
:1001200008951F920F920FB60F9211242F933F93B1
:100130004F935F936F937F938F939F93AF93BF93EF
:10014000EF93FF93E0916400F0E0EE59FF4F808160
:1001500084BD809166008F5F8093660090916600F9
:10016000E0916400F0E0E05AFF4F8081981344C0B2
:1001700088B394E0892788BBC29B0DC0809167003B
:100180008930C1F581DF86E016D196DF14D18091E8
:10019000710011D119C0809167008230B9F068F404
:1001A000813041F581E0A0DF93988091710060DF9C
:1001B00072DF8091720076DF07C0873081F088306F
:1001C000C9F480DF89E014C082E012C0929893984D
:1001D00057DF78DF84E0EFD0109267000BC081E03A
:1001E00083DF81E087DF8091710042DF6BDF88E091
:1001F000809367001092660080916700813278F0EA
:10020000809165008F5F80936500809165008233E7
:1002100031F4109267001092650085E0CCD0FF9118
:10022000EF91BF91AF919F918F917F916F915F916E
:100230004F913F912F910F900FBE0F901F901895E7
:1002400003D05EDF4EDF10CFF89410BC87E689B98B
:100250008AB1886D8AB980B5866880BD7894089522
:1002600090916D009132C0F4E0916E00F0E0ED5697
:10027000FF4F808380916D008F5F80936D00809130
:100280006E008F3120F480916E008F5F01C080E09E
:1002900080936E0081E0089580E008951F920F9290
:1002A0000FB60F9211242F933F934F935F936F9349
:1002B0007F938F939F93AF93BF93EF93FF938CB1F3
:1002C000CFDFFF91EF91BF91AF919F918F917F9180
:1002D0006F915F914F913F912F910F900FBE0F90B3
:1002E0001F90189580916D008823B9F0E0916F0000
:1002F000F0E0ED56FF4F808190916D00915090930A
:100300006D0090916F009F3120F490916F009F5F7E
:1003100001C090E090936F00089580E0089580916F
:100320006D00089580916A008823B9F0E0916C0017
:10033000F0E0ED58FF4F808190916A0091509093CA
:100340006A0090916C009F3120F490916C009F5F47
:1003500001C090E090936C00089580E008951F9292
:100360000F920FB60F9211242F933F934F935F93E9
:100370006F937F938F939F93AF93BF93EF93FF936D
:100380005E9880916A00882319F0CCDF8CB902C096
:1003900010926900FF91EF91BF91AF919F918F9162
:1003A0007F916F915F914F913F912F910F900FBE71
:1003B0000F901F90189590916A00913200F5E0918E
:1003C0006B00F0E0ED58FF4F808380916A008F5FF3
:1003D00080936A0080916B008F3120F480916B00D4
:1003E0008F5F01C080E080936B0080916900811174
:1003F00008C081E08093690095DF8CB902C080E07D
:10040000089581E008951CDFD7E0C1E08091670086
:10041000823291F08832E9F0813279F580DF8230E2
:10042000A8F3109265005EDF809371005BDF80931C
:100430007200C0936700EACF72DF882339F310920D
:10044000650050DF8093710084E0B5DFD0936700D2
:10045000DDCF65DF8823D1F245DF813029F082309E
:1004600039F4C093640002C01092640084E001C0BB
:1004700085E0A1DF10926700C9CF51DF882331F2F8
:10048000109265002FDF823229F0883219F0813214
:0E04900009F0BCCF80936700B9CFF894FFCF7E
:04049E003FFB070514
:00000001FF
