:100000000C942A000C94D5000C943C000C943C00F9
:100010000C943C000C943C000C943C000C943C0070
:100020000C943C000C949F000C943C000C946201D6
:100030000C943C000C94C6010C943C000C943C00C5
:100040000C943C000C943C000C943C000C943C0040
:100050000C943C0011241FBECFE5D4E0DEBFCDBF21
:1000600010E0A0E6B0E001C01D92AB3AB107E1F7A5
:100070000E94D2000C941E020C94000088B390E100
:10008000892788BB0895F89485B7816085BF8BB7B1
:1000900080648BBF7894089580B390E080739070F3
:1000A00024E0959587952A95E1F708951ABA089561
:1000B0008FEF8ABB089589BB089589B3089519BA53
:1000C0001ABA089587B38F6087BB0895982F88B3B5
:1000D000807F88BB923081F0933028F4992341F0DF
:1000E000913089F407C0933049F0943061F408C02E
:1000F000C09A0895C19A0895C29A0895C39A08951E
:1001000088B3807F88BB08958FEF84BB089514BAAD
:10011000089585BB089583B3089514BA84E00E94BE
:10012000660015BA0895F89489B7816089BF83B7CE
:100130008D7F83BF83B7856083BF789408951F92B6
:100140000F920FB60F9211248F939F9380916200AC
:100150008F5F8093620080916200803288F088B364
:1001600090E1892788BB809161008F5F8093610057
:1001700080916100843011F410926100109262004D
:100180009F918F910F900FBE0F901F901895BC9A62
:100190000E94430087B38F6087BB0E9493000E9438
:1001A000370108950E94C700FFCF1F920F920FB62C
:1001B0000F9211242F933F934F935F936F937F93ED
:1001C0008F939F93AF93BF93EF93FF93829B2BC02B
:1001D00080916000823011F410926000839B21C0F6
:1001E00086991FC088B3807F88BB48B380B390E0F6
:1001F0008073907034E0959587953A95E1F721E00A
:1002000030E002C0220F331F8A95E2F7422B48BB31
:100210001ABA84B38FEF84BB89B385BB81E0809326
:100220006000C49813C080916000813079F488B375
:10023000807F88BB15BA13BA84B314BA10926000D9
:100240008EEF0E94F30183B30E94F301FF91EF91BF
:10025000BF91AF919F918F917F916F915F914F91DE
:100260003F912F910F900FBE0F901F901895F8940B
:1002700010BC87E689B98AB1886D8AB980B586686D
:1002800080BD78940895982F80916500813210F098
:1002900080E00895E0916400F0E0E557FF4F90831F
:1002A000809165008F5F80936500809164008F313D
:1002B00010F080E003C0809164008F5F8093640041
:1002C00081E008951F920F920FB60F9211242F9381
:1002D0003F934F935F936F937F938F939F93AF93CE
:1002E000BF93EF93FF938CB10E944301FF91EF9175
:1002F000BF91AF919F918F917F916F915F914F913E
:100300003F912F910F900FBE0F901F9018958091E5
:100310006500882311F4E0E016C0E0916300F0E08E
:10032000E557FF4FE0818091650081508093650023
:10033000809163008F3110F080E003C080916300F2
:100340008F5F809363008E2F0895809165000895DC
:1003500080916800882311F4E0E016C0E091660007
:10036000F0E0E559FF4FE081809168008150809373
:100370006800809166008F3110F080E003C08091AA
:1003800066008F5F809366008E2F08951F920F92F4
:100390000FB60F9211242F933F934F935F936F9358
:1003A0007F938F939F93AF93BF93EF93FF935E9849
:1003B00080916800882321F00E94A8018CB902C0B6
:1003C00010926900FF91EF91BF91AF919F918F9132
:1003D0007F916F915F914F913F912F910F900FBE41
:1003E0000F901F901895982F80916800813210F01F
:1003F00080E00895E0916700F0E0E559FF4F9083B9
:10040000809168008F5F80936800809167008F31D2
:1004100010F080E003C0809167008F5F80936700D9
:1004200080916900882311F081E0089581E0809334
:1004300069000E94A8018CB981E00895F894FFCF6B
:00000001FF
